:100000000C945D000C9485000C9485000C94850084
:100010000C9485000C9485000C9485000C9485004C
:100020000C9485000C9485000C9485000C9421059B
:100030000C9485000C9485000C9485000C9485002C
:100040000C9400040C9485000C9470040C944A04E5
:100050000C9485000C94A2040C9485000C948500EB
:100060000C9485000C9485000000000024002700FB
:100070002A0000000000250028002B0004040404CE
:100080000404040402020202020203030303030342
:10009000010204081020408001020408102001021F
:1000A00004081020000000080002010000030407FB
:1000B0000000000000000000FB0911241FBECFEF6C
:1000C000D8E0DEBFCDBF11E0A0E0B1E0E2E8F6E1AC
:1000D00002C005900D92A43CB107D9F725E0A4EC2D
:1000E000B1E001C01D92A831B207E1F710E0CDE503
:1000F000D0E004C02197FE010E94280ACC35D10728
:10010000C9F70E9478050C943F0B0C94000090E016
:10011000FC01EC55FF4F2491FC01E057FF4F349157
:10012000FC01E458FF4FE491EE23C9F0222339F09B
:10013000233001F1A8F4213019F1223029F1F0E047
:10014000EE0FFF1FEE58FF4FA591B4918FB7F894B3
:10015000EC91611126C030953E233C938FBF0895EA
:100160002730A9F02830C9F0243049F78091800069
:100170008F7D03C0809180008F7780938000DFCFD8
:1001800084B58F7784BDDBCF84B58F7DFBCF809125
:10019000B0008F778093B000D2CF8091B0008F7D78
:1001A000F9CF3E2BDACFCF93DF9390E0FC01E057FD
:1001B000FF4F249184589F4FFC0184918823D1F0F4
:1001C00090E0880F991FFC01E859FF4FA591B49169
:1001D000FC01EE58FF4FC591D49161110EC09FB73D
:1001E000F8948C91E22FE0958E238C932881E22362
:1001F000E8839FBFDF91CF9108958FB7F894EC917A
:10020000E22BEC938FBFF6CFAF92BF92CF92DF92EB
:10021000EF92FF920F931F93CF93DF936C017B01BB
:100220008B01040F151FEB015E01AE18BF08C0174C
:10023000D10759F06991D601ED91FC910190F081BF
:10024000E02DC6010995892B79F7C501DF91CF9182
:100250001F910F91FF90EF90DF90CF90BF90AF90E4
:100260000895FC01538D448D252F30E0842F90E0BC
:10027000821B930B541710F0CF96089501970895A1
:10028000FC01918D828D981761F0A28DAE0FBF2F6A
:10029000B11D5D968C91928D9F5F9F73928F90E0C0
:1002A00008958FEF9FEF0895FC01918D828D98172F
:1002B00031F0828DE80FF11D858D90E008958FEF6C
:1002C0009FEF0895FC01918D228D892F90E0805C35
:1002D0009F4F821B91098F739927089582E794E0BD
:1002E0000E94620121E0892B09F420E0822F089509
:1002F00080E090E0892B29F00E946E0181110C941E
:1003000000000895FC01A48DA80FB92FB11DA35AB8
:10031000BF4F2C91848D90E001968F739927848F25
:10032000A689B7892C93A089B1898C918370806448
:100330008C93938D848D981306C00288F389E02DE9
:1003400080818F7D80830895EF92FF920F931F939A
:10035000CF93DF93EC0181E0888F9B8D8C8D981378
:100360001AC0E889F989808185FF15C09FB7F89484
:10037000EE89FF896083E889F989808183708064D0
:1003800080839FBF81E090E0DF91CF911F910F911B
:10039000FF90EF900895F62E0B8D10E00F5F1F4F2A
:1003A0000F731127E02E8C8D8E110CC00FB607FC39
:1003B000FACFE889F989808185FFF5CFCE010E94C7
:1003C0008201F1CFEB8DEC0FFD2FF11DE35AFF4FB2
:1003D000F0829FB7F8940B8FEA89FB898081806255
:1003E000CFCFCF93DF93EC01888D8823B9F0AA8912
:1003F000BB89E889F9898C9185FD03C0808186FDE0
:100400000DC00FB607FCF7CF8C9185FFF2CF80812E
:1004100085FFEDCFCE010E948201E9CFDF91CF9120
:10042000089580E480937C0080917E0081608093B9
:100430007E0010927B0087E880937A0080917A009A
:10044000806480937A0080917A0086FDFCCF809151
:1004500078009091790008959FB7F89410928100E8
:1004600010926F00EAE7F0E0808187778083109236
:1004700070049FBF089580916302882359F06091B2
:100480005E02617080915D020E94870081E080932E
:100490000001089560E088E0F7CFE0914F02F0910D
:1004A000500290914E02882321F08081982B9083F6
:1004B0000895808190959823FACFFC016081718125
:1004C000828193810895962728E0AC01880F991FB7
:1004D00057FF04C031E2832730E193272150A9F769
:1004E00008956F927F928F929F92AF92BF92CF9218
:1004F000DF92EF92FF920F931F93CF93DF93CDB7CD
:10050000DEB728970FB6F894DEBF0FBECDBF8B01C4
:100510007A0191E099838A834B831C82CE010196F4
:100520005C016E0195E0C90ED11C8FEF9FEF350184
:10053000AC14BD0469F448015701A00EB11E8A1421
:100540009B0461F0F40161914F010E946302F7CFB7
:10055000F50161915F010E946302EACF25EA2D83D4
:100560002AE52E838F83988742E050E0B60182E728
:1005700094E00E94040144E050E0B30182E794E07B
:100580000E940401A701B80182E794E00E940401DF
:1005900042E050E0BE01695F7F4F82E794E00E9435
:1005A000040128960FB6F894DEBF0FBECDBFDF91D1
:1005B000CF911F910F91FF90EF90DF90CF90BF9060
:1005C000AF909F908F907F906F9008951F93CF93DF
:1005D000DF93CDB7DEB7CE5CD1090FB6F894DEBF9E
:1005E0000FBECDBF2FB7F89480916404813308F01B
:1005F0003EC08823C1F0E0914C02F0E0EE0FFF1FF7
:10060000EC53FE4F40815181E1965FAF4EAFE197D1
:1006100090914C029F5F9F7390934C029091640461
:100620009150909364042FBFAFE6B0E0AC0FBD1FB4
:10063000129621E02817E8F43FB7F894E0914C02B5
:10064000F0E0EE0FFF1FEC53FE4F408151814D93C0
:100650005D9390914C029F5F9F7390934C02909199
:1006600064049150909364043FBF2F5FE3CF80E315
:10067000C2CF882309F46AC04091690430916A04AA
:1006800020916B0490916C0449833A832B839C8363
:1006900040914402309145022091460290914702D8
:1006A0004D833E832F839887409165043091660483
:1006B000209167049091680449873A872B879C872B
:1006C0008D871E86FE01E159FF4FDE01119610E075
:1006D000BD012081918132961E962C931E971F9604
:1006E0009C931F971F5F12961813F3CF412F50E072
:1006F000495F5F4F440F551F87E00E947102809150
:10070000440290914502A0914602B09147020196A1
:10071000A11DB11D8093440290934502A09346020F
:10072000B09347028091650490916604A09167049C
:10073000B0916804810F911DA11DB11D80936504C6
:1007400090936604A0936704B0936804C253DF4F8C
:100750000FB6F894DEBF0FBECDBFDF91CF911F91D2
:100760000895CF93DF93CDB7DEB7AA970FB6F8946D
:10077000DEBF0FBECDBF89839A83FB01DE011396D6
:1007800042E08191882329F04A3219F04F5F8D931E
:10079000F8CF50E0BE016F5F7F4F89E00E94710289
:1007A000AA960FB6F894DEBF0FBECDBFDF91CF91F2
:1007B00008950F931F93CF93DF93EC018B010E9459
:1007C0002C020E943B029FB7F894809164049FBF63
:1007D000882319F00E94E602F6CFB801CE010E94EC
:1007E000B103809163028093710410926F041092A0
:1007F0006E0410926D04DF91CF911F910F910895B7
:100800001F920F920FB60F9211242F933F938F9345
:100810009F93AF93BF938091140590911505A0917C
:100820001605B09117053091130523E0230F2D37DE
:1008300058F50196A11DB11D209313058093140551
:1008400090931505A0931605B093170580910F0599
:1008500090911005A0911105B09112050196A11D6E
:10086000B11D80930F0590931005A0931105B093CF
:100870001205BF91AF919F918F913F912F910F9052
:100880000FBE0F901F90189526E8230F0296A11D0A
:10089000B11DD2CF1F920F920FB60F9211242F933A
:1008A0003F934F935F936F937F938F939F93AF93F8
:1008B000BF93EF93FF9382E794E00E948201FF9140
:1008C000EF91BF91AF919F918F917F916F915F91C8
:1008D0004F913F912F910F900FBE0F901F90189541
:1008E0001F920F920FB60F9211242F938F939F9305
:1008F000EF93FF93E0918204F09183048081E09173
:100900008804F091890482FD1BC0908180918B0442
:100910008F5F8F7320918C04821741F0E0918B04DC
:10092000F0E0EE58FB4F958F80938B04FF91EF9191
:100930009F918F912F910F900FBE0F901F90189540
:100940008081F4CF1F920F920FB60F9211242F9334
:100950004F935F936F937F938F939F93AF93BF93C7
:10096000EF93FF938091780090917900209170042B
:10097000222381F0209164042034E0F01092810061
:1009800010926F001092700484E090E090936E04D7
:1009900080936D04FF91EF91BF91AF919F918F91E3
:1009A0007F916F915F914F912F910F900FBE0F909C
:1009B0001F901895E0914D02F0E0EE0FFF1FEC53F1
:1009C000FE4F9183808380914D028F5F8F73809360
:1009D0004D02809164048F5F80936404809148028B
:1009E00090914902A0914A02B0914B020196A11D3B
:1009F000B11D8093480290934902A0934A02B0939C
:100A00004B028091480290914902A0914A02B09114
:100A10004B02409158025091590260915A027091D4
:100A20005B0284179507A607B70708F4B3CF1092A7
:100A3000810010926F001092700481E080936F0427
:100A4000A9CF1F920F920FB60F9211242F933F93AD
:100A50004F935F936F937F938F939F93AF93BF93C6
:100A6000EF93FF9380917004882381F080917A0046
:100A700086FF1DC01092810010926F0010927004CA
:100A800085E090E090936E0480936D04FF91EF9168
:100A9000BF91AF919F918F917F916F915F914F9196
:100AA0003F912F910F900FBE0F901F90189580913E
:100AB000480290914902A0914A02B0914B024091A4
:100AC0005F0250916002609161027091620248176A
:100AD00059076A077B0731F480915E028695817021
:100AE0000E944D0280917A00806480937A00CECF7C
:100AF000CF93DF93CDB7DEB7E4970FB6F894DEBFA0
:100B00000FBECDBF789484B5826084BD84B581600A
:100B100084BD85B5826085BD85B5816085BD8091C8
:100B20006E00816080936E00109281008091810040
:100B30008260809381008091810081608093810038
:100B4000809180008160809380008091B1008460FA
:100B50008093B1008091B00081608093B00080915B
:100B60007A00846080937A0080917A00826080931A
:100B70007A0080917A00816080937A0080917A0077
:100B8000806880937A001092C10061E088E00E9442
:100B9000D30060E088E00E948700E0918204F09139
:100BA000830482E08083E0917E04F0917F041082D0
:100BB000E0918004F091810480E1808310928A04A6
:100BC000E0918604F091870486E08083E0918404BC
:100BD000F0918504808180618083E0918404F091AC
:100BE0008504808188608083E0918404F09185048D
:100BF000808180688083E0918404F0918504808105
:100C00008F7D80839924939482E794E00E9462010F
:100C1000181619060CF074C382E794E00E94400194
:100C2000BC018DA3E0910101E93070F7F0E0E55ED1
:100C3000F94F0C94280A24062A063706450653065F
:100C400066069506B706BE060DA1053AE9F690922E
:100C50000101DACF1DA11A3521F422E02093010110
:100C6000D3CF3DA1353A81F210920101CDCF8093CF
:100C700002018FEF9FEF0E9463029093090180931E
:100C8000080183E080930101BFCF8093030180912D
:100C90000801909109010E946302909309018093D9
:100CA000080184E0EFCF9927909305018093040118
:100CB00080910801909109010E94630290930901BB
:100CC0008093080195E0909301019ECF182F002793
:100CD0008091040190910501082B192B10930501B7
:100CE0000093040180910801909109010E94630220
:100CF00090930901809308010130A2E01A0738F0AF
:100D000081E0BDA1B53A09F473C080E071C0012B48
:100D100021F4E7E0E093010177CF109207011092F0
:100D20000601F6E0F09301016FCF809106019091EA
:100D300007018C010F5F1F4F1093070100930601FD
:100D40008C599D4FDC016C938091080190910901B1
:100D50000E9463029093090180930801809104012D
:100D6000909105010817190709F04ECFD2CF7727C8
:100D700070930B0160930A0188E084CF782F662777
:100D800080910A0190910B01682B792B70930B01D4
:100D900060930A0180910801909109016817790711
:100DA00011F5009102018091710466E471E0013057
:100DB00071F520910401309105018091030181308A
:100DC00091F5232B01F589831A821B821D821E82D5
:100DD0001F82B7E0BC8347E050E0BE016F5F7F4FEA
:100DE00082E00E94710281E03DA1353A09F08DCF89
:100DF00080930101109207011092060110920501E3
:100E00001092040101CF8091710467E571E0823096
:100E100029F481E090E00E94D903E5CF81E090E0E1
:100E20000E94B103E0CF10917104833009F089C1B1
:100E300065E671E0123009F453C22F30310509F034
:100E40004CC084E692E00E945D026B017C0188E662
:100E500092E00E945D022B013C018FE692E00E942D
:100E60005D0269A77AA78BA79CA7D301C20101974E
:100E7000A109B10980349244AF40B10570F5809169
:100E80006C0281112AC080906D028EEF880D8C302B
:100E900020F5F0916E02F8A72F2F30E08F2F8C7F76
:100EA000E1F4C901959587958F2780FF16C009A5A4
:100EB0001AA52BA53CA5041515052605370568F4CC
:100EC0001AEFC116D104E104F10460F021E0C2166A
:100ED000D10420E4E206F10450F069E771E082E019
:100EE00090E09ECF7AEFC72ED12CE12CF12C8AE036
:100EF000ECE0F1E0DE01119601900D928A95E1F7A8
:100F000085E0E6E1F1E0DE01509601900D928A95D0
:100F1000E1F756019501A70160E070E080E090E004
:100F200004E00E94E50A2DA73EA74FA758AB69AB86
:100F30007AAB8BAB9CABCE0101969FA38EA3312CD9
:100F4000212CAEA1BFA14D915D91BFA3AEA36A01BB
:100F5000F12CE12C00E010E098014D8FDE8EEF8E39
:100F6000F8A209A31AA32BA33CA3569547959A016F
:100F700040E050E060E070E080E090E0ADA4BEA40E
:100F8000CFA4D8A8E9A8FAA80BA91CA90E941B0BFA
:100F9000AD8CBE8CC12CD12CE12CF12C00E010E0EA
:100FA0000E94880A192F2D8B3E8B4F8B588F698F8B
:100FB0007A8F8B8F9C8FAFEF0E94240B2F3F3F4F78
:100FC00041055105610571058105910509F080F51F
:100FD0002D893E89215031093FA32EA3E0E1F0E0A5
:100FE000EC0FFD1FE20DF31D3080AD88BE88CF8869
:100FF000D88CE98CFA8C0B8D2D8D3E8D4F8D58A1A0
:1010000069A17AA18BA19CA10E942E0AA8E00E944E
:10101000240B04E00E94000B79018A018091630295
:1010200081110FC098E08916D1F060E088E015C00A
:101030003FEF231A330A85E02816310409F081CFE7
:101040004CCF80915D02881551F060915E02617015
:101050000E94870060E080915D020E94D300E092D0
:101060005402F09255020093560210935702409298
:1010700058025092590260925A0270925B0210928A
:101080005C0280925D02A8A5A0935E02C9A4DAA4C6
:10109000EBA4FCA4C0925F02D0926002E0926102D5
:1010A000F0926202EEA0FFA0F0925302E092520290
:1010B000309251029092630261E0882D0E94D30029
:1010C0000E943B020E94110280917A008F778093E8
:1010D0007A003091540220915502909156028091ED
:1010E000570239832A839B838C8330915802209145
:1010F000590290915A0280915B023D832E839F8317
:10110000888780915C02898780915D028A878091BF
:101110005E028B8730915F022091600290916102A4
:10112000809162023C872D879E878F874FE050E039
:10113000BE016F5F7F4F84E00E9471029092710444
:1011400052CE853009F0ADC02430310509F0A0C081
:10115000113009F09DC080916302882309F49CC07E
:1011600084E692E00E945D022FB7F89410924D023F
:1011700010924C021092640410924802109249029C
:1011800010924A0210924B0210926F0410926E0459
:1011900010926D042FBF10924402109245021092DB
:1011A0004602109247021092650410926604109253
:1011B0006704109268046093690470936A048093D2
:1011C0006B0490936C0461E080915D020E94D300F7
:1011D00060915E02617080915D020E948700809143
:1011E0005D0290E0FC01E458FF4FE491F0E0EE0F67
:1011F000FF1FEE58FF4F25913491309350022093FA
:101200004F02FC01E057FF4FE491E0934E02109231
:1012100000010E9411021092800010928100109231
:101220008500109284008091520290915302909315
:1012300089008093880032E0F32EF6BAF0926F00B6
:101240000FB7F8941093700412E01093710480911A
:101250005F0290916002A0916102B0916202892BBD
:101260008A2B8B2B31F480915E02869581700E94CF
:101270004D022FE920937A0080917A008064809358
:101280007A00809151028860809381000FBFABCDBE
:1012900068E871E0123021F168E871E083E090E0E5
:1012A000BFCD60EB71E0863029F566E971E024304E
:1012B000310501F5123009F096CD84E692E00E94E6
:1012C0005D02C0906904D0906A04E0906B04F090D5
:1012D0006C046C157D058E059F0529F063EA71E0AD
:1012E00083E090E098CD0E942C020E943B02009384
:1012F0006F0479CD83E090E0123009F091CD8BCD71
:1013000080917104823029F580910001811110C013
:1013100080917004882351F080916F04811106C080
:1013200080916D0490916E04892B11F00E943B0214
:101330009FB7F894809164049FBF882331F0909107
:101340007004992399F0803388F480917004882385
:1013500081F080E090E0892B09F456CC0E946E0168
:10136000882309F451CC0E9400004ECC0E94E60272
:10137000F0CF3FB7F89480916D0490916E04209166
:101380006F043FBF009781F06DE271E084309105FA
:1013900011F06DE371E00E94B10310926E0410929F
:1013A0006D0490927104D5CF222399F23091690493
:1013B00020916A0490916B0480916C0439832A8394
:1013C0009B838C833091650420916604909167041F
:1013D000809168043D832E839F83888748E050E096
:1013E000BE016F5F7F4F88E00E947102909271048E
:1013F00010926F04AECFE2E7F4E01382128288EE1F
:1014000093E0A0E0B0E084839583A683B7838FE167
:1014100091E09183808385EC90E09587848784ECCC
:1014200090E09787868780EC90E0918B808B81ECB1
:1014300090E0938B828B82EC90E0958B848B86EC92
:1014400090E0978B868B118E128E138E148E0895DA
:10145000EE0FFF1F0590F491E02D0994DF93CF93D9
:101460001F930F939A9DF02D219FF00D8B9DF00DF2
:101470008A9DE02DF10D039FF00D029FE00DF11DFF
:101480004E9DE00DF11D5E9DF00D4F9DF00D7F9383
:101490006F93BF92AF925F934F93D5010E94300B31
:1014A0008B01AC01D7010E94300BEB01E80FF91F53
:1014B000D6010E947D0A2F913F91D6010E94300BE8
:1014C000C60FD71FE81FF91FAF91BF910E947D0A79
:1014D0002F913F910E94300BC60FD71FE81FF91FB5
:1014E000D6010E94300BE60FF71F9801BE01CF0115
:1014F0000F911F91CF91DF9108950E94300B460FFD
:10150000571FC81FD91F08F431960895689401C069
:10151000E8948F929F92CF93DF930E94940ADF9179
:10152000CF919F908F90089588249924F401E4012D
:10153000B0E49F93AA279A158B049C04ED05FE0541
:10154000CF05D007A10798F4AD2FDC2FCF2FFE2FAA
:10155000E92D982C892E982F872F762F652F542FC1
:10156000432F322F2227B85031F7BF9127C01B2EAF
:10157000BF91BB27220F331F441F551F661F771FC4
:10158000881F991F881C991CEE1FFF1FCC1FDD1F91
:10159000AA1FBB1F8A149B04EC05FD05CE05DF05C1
:1015A000A007B10748F08A189B08EC09FD09CE098D
:1015B000DF09A00BB10B21601A94E1F62EF494011F
:1015C000AF01BE01CD01000C0895002E083090F04F
:1015D000982F872F762F652F542F432F322F2227B6
:1015E0000850F4CF220F331F441F551F661F771F6B
:1015F000881F991F0A95B2F7002D089597FD109442
:10160000002E083098F00850232F342F452F562FE6
:10161000672F782F892F912DF4CF15949795879563
:101620007795679557954795379527950A95AAF722
:101630001124002D08952A0D3B1D4C1D5D1D6E1DAE
:101640007F1D801F911F08950024A7FD00942A0F7D
:10165000301D401D501D601D701D801D901D089582
:10166000A29FB001B39FC001A39F700D811D1124E3
:10167000911DB29F700D811D1124911D0895F89444
:02168000FFCF9A
:101682000100000000000000FFFF00000100080050
:10169200400000010004010203040500000000A450
:1016A2000104013101F10162014001540173616DD4
:1016B200706C65206F766572666C6F77004144438B
:1016C20020627573790070726F746F636F6C20762D
:1016D200657273696F6E0048454C4C4F207061799A
:1016E2006C6F616400434F4E464947207768696CCE
:1016F200652061637469766500696E76616C696400
:1017020020434F4E46494700696E76616C696420FA
:10171200535441525400696E76616C69642053548B
:101722004F500053544F502073657373696F6E00AE
:10173200756E657870656374656420636F6D6D6145
:041742006E640000D1
:00000001FF
