:100000000C945D000C9485000C9485000C94850084
:100010000C9485000C9485000C9485000C9485004C
:100020000C9485000C9485000C9485000C94240598
:100030000C9485000C9485000C9485000C9485002C
:100040000C9403040C9485000C9473040C944D04DC
:100050000C9485000C94A5040C9485000C948500E8
:100060000C9485000C9485000000000024002700FB
:100070002A0000000000250028002B0004040404CE
:100080000404040402020202020203030303030342
:10009000010204081020408001020408102001021F
:1000A00004081020000000080002010000030407FB
:1000B00000000000000000004D0B11241FBECFEF18
:1000C000D8E0DEBFCDBF11E0A0E0B1E0E2EDF9E1A4
:1000D00002C005900D92AA3CB107D9F725E0AAEC21
:1000E000B1E001C01D92A832B207E1F710E0CDE502
:1000F000D0E004C02197FE010E949C0BCC35D107B3
:10010000C9F70E94EB050C94E70C0C94000090E0FA
:10011000FC01EC55FF4F2491FC01E057FF4F349157
:10012000FC01E458FF4FE491EE23C9F0222339F09B
:10013000233001F1A8F4213019F1223029F1F0E047
:10014000EE0FFF1FEE58FF4FA591B4918FB7F894B3
:10015000EC91611126C030953E233C938FBF0895EA
:100160002730A9F02830C9F0243049F78091800069
:100170008F7D03C0809180008F7780938000DFCFD8
:1001800084B58F7784BDDBCF84B58F7DFBCF809125
:10019000B0008F778093B000D2CF8091B0008F7D78
:1001A000F9CF3E2BDACFCF93DF9390E0FC01E057FD
:1001B000FF4F249184589F4FFC0184918823D1F0F4
:1001C00090E0880F991FFC01E859FF4FA591B49169
:1001D000FC01EE58FF4FC591D49161110EC09FB73D
:1001E000F8948C91E22FE0958E238C932881E22362
:1001F000E8839FBFDF91CF9108958FB7F894EC917A
:10020000E22BEC938FBFF6CFAF92BF92CF92DF92EB
:10021000EF92FF920F931F93CF93DF936C017B01BB
:100220008B01040F151FEB015E01AE18BF08C0174C
:10023000D10759F06991D601ED91FC910190F081BF
:10024000E02DC6010995892B79F7C501DF91CF9182
:100250001F910F91FF90EF90DF90CF90BF90AF90E4
:100260000895FC01538D448D252F30E0842F90E0BC
:10027000821B930B541710F0CF96089501970895A1
:10028000FC01918D828D981761F0A28DAE0FBF2F6A
:10029000B11D5D968C91928D9F5F9F73928F90E0C0
:1002A00008958FEF9FEF0895FC01918D828D98172F
:1002B00031F0828DE80FF11D858D90E008958FEF6C
:1002C0009FEF0895FC01918D228D892F90E0805C35
:1002D0009F4F821B91098F739927089582E894E0BC
:1002E0000E94620121E0892B09F420E0822F089509
:1002F00080E090E0892B29F00E946E0181110C941E
:1003000000000895FC01A48DA80FB92FB11DA35AB8
:10031000BF4F2C91848D90E001968F739927848F25
:10032000A689B7892C93A089B1898C918370806448
:100330008C93938D848D981306C00288F389E02DE9
:1003400080818F7D80830895EF92FF920F931F939A
:10035000CF93DF93EC0181E0888F9B8D8C8D981378
:100360001AC0E889F989808185FF15C09FB7F89484
:10037000EE89FF896083E889F989808183708064D0
:1003800080839FBF81E090E0DF91CF911F910F911B
:10039000FF90EF900895F62E0B8D10E00F5F1F4F2A
:1003A0000F731127E02E8C8D8E110CC00FB607FC39
:1003B000FACFE889F989808185FFF5CFCE010E94C7
:1003C0008201F1CFEB8DEC0FFD2FF11DE35AFF4FB2
:1003D000F0829FB7F8940B8FEA89FB898081806255
:1003E000CFCFCF93DF93EC01888D8823B9F0AA8912
:1003F000BB89E889F9898C9185FD03C0808186FDE0
:100400000DC00FB607FCF7CF8C9185FFF2CF80812E
:1004100085FFEDCFCE010E948201E9CFDF91CF9120
:10042000089580E480937C0080917E0081608093B9
:100430007E0010927B0087E880937A0080917A009A
:10044000806480937A0080917A0086FDFCCF809151
:1004500078009091790008959FB7F89410928100E8
:1004600010926F00EAE7F0E0808187778083109236
:1004700080049FBF089580917302882359F0609192
:100480006A026170809169020E94870081E0809316
:100490000001089560E088E0F7CFE0915902F09103
:1004A0005A0290915802882321F08081982B9083E2
:1004B0000895808190959823FACFFC016081718125
:1004C000828193810895962728E0AC01880F991FB7
:1004D00057FF04C031E2832730E193272150A9F769
:1004E00008956F927F928F929F92AF92BF92CF9218
:1004F000DF92EF92FF920F931F93CF93DF93CDB7CD
:10050000DEB728970FB6F894DEBF0FBECDBF7B01D4
:100510008A0191E099838A834B831C82CE010196E4
:100520005C016E0195E0C90ED11C8FEF9FEF350184
:10053000AC14BD0469F447015801AE0CBF1C8A1409
:100540009B0461F0F40161914F010E946302F7CFB7
:10055000F50161915F010E946302EACF25EA2D83D4
:100560002AE52E838F83988742E050E0B60182E827
:1005700094E00E94040144E050E0B30182E894E07A
:100580000E9404010115110531F0A801B70182E8AC
:1005900094E00E94040142E050E0BE01695F7F4F99
:1005A00082E894E00E94040128960FB6F894DEBF1A
:1005B0000FBECDBFDF91CF911F910F91FF90EF90B4
:1005C000DF90CF90BF90AF909F908F907F906F9073
:1005D00008951F93CF93DF93CDB7DEB7CE5CD109DB
:1005E0000FB6F894DEBF0FBECDBF2FB7F894809141
:1005F0007404813308F03EC08823C1F0E0915202B8
:10060000F0E0EE0FFF1FE653FE4F40815181E1966F
:100610005FAF4EAFE197909152029F5F9F739093AF
:100620005202909174049150909374042FBFAFE6DE
:10063000B0E0AC0FBD1F129621E02817E8F43FB7D9
:10064000F894E0915202F0E0EE0FFF1FE653FE4FE8
:10065000408151814D935D93909152029F5F9F73B2
:1006600090935202909174049150909374043FBF00
:100670002F5FE3CF80E3C2CF882309F46AC04091A3
:10068000790430917A0420917B0490917C04498311
:100690003A832B839C8340914A0230914B022091F4
:1006A0004C0290914D024D833E832F839887409159
:1006B00075043091760420917704909178044987ED
:1006C0003A872B879C878D871E86FE01E159FF4F55
:1006D000DE01119610E0BD012081918132961E96B7
:1006E0002C931E971F969C931F971F5F12961813AB
:1006F000F3CF412F50E0495F5F4F440F551F87E014
:100700000E94710280914A0290914B02A0914C028A
:10071000B0914D020196A11DB11D80934A029093A4
:100720004B02A0934C02B0934D02809175049091BE
:100730007604A0917704B0917804810F911DA11DDA
:10074000B11D8093750490937604A0937704B093C1
:100750007804C253DF4F0FB6F894DEBF0FBECDBF93
:10076000DF91CF911F910895CF93DF93CDB7DEB77F
:10077000AA970FB6F894DEBF0FBECDBF89839A83C8
:10078000FB01DE01139642E08191882329F04A3271
:1007900019F04F5F8D93F8CF50E0BE016F5F7F4F30
:1007A00089E00E947102AA960FB6F894DEBF0FBED0
:1007B000CDBFDF91CF9108950F931F93CF93DF9318
:1007C000EC018B010E942C020E943B029FB7F8941F
:1007D000809174049FBF882319F00E94E902F6CF2C
:1007E000B801CE010E94B40380917302809381040A
:1007F00010927F0410927E0410927D04DF91CF91BD
:100800001F910F9108951F920F920FB60F9211240E
:100810002F933F938F939F93AF93BF938091240522
:1008200090912505A0912605B091270530912305CB
:1008300023E0230F2D3758F50196A11DB11D2093FC
:1008400023058093240590932505A0932605B09356
:10085000270580911F0590912005A0912105B09159
:1008600022050196A11DB11D80931F0590932005BF
:10087000A0932105B0932205BF91AF919F918F91D5
:100880003F912F910F900FBE0F901F90189526E863
:10089000230F0296A11DB11DD2CF1F920F920FB64A
:1008A0000F9211242F933F934F935F936F937F93F6
:1008B0008F939F93AF93BF93EF93FF9382E894E05E
:1008C0000E948201FF91EF91BF91AF919F918F9113
:1008D0007F916F915F914F913F912F910F900FBE3C
:1008E0000F901F9018951F920F920FB60F92112420
:1008F0002F938F939F93EF93FF93E0919204F09146
:1009000093048081E0919804F091990482FD1BC0CA
:10091000908180919B048F5F8F7320919C0482173C
:1009200041F0E0919B04F0E0EE57FB4F958F8093F0
:100930009B04FF91EF919F918F912F910F900FBE8C
:100940000F901F9018958081F4CF1F920F920FB6D1
:100950000F9211242F934F935F936F937F938F93F5
:100960009F93AF93BF93EF93FF9380917800909103
:10097000790020918004222381F020917404203496
:10098000E0F01092810010926F001092800484E0D9
:1009900090E090937E0480937D04FF91EF91BF914E
:1009A000AF919F918F917F916F915F914F912F9117
:1009B0000F900FBE0F901F901895E0915302F0E03A
:1009C000EE0FFF1FE653FE4F918380838091530209
:1009D0008F5F8F7380935302809174048F5F809335
:1009E000740480914E0290914F02A0915002B091F8
:1009F00051020196A11DB11D80934E0290934F02AA
:100A0000A0935002B093510280914E0290914F02F8
:100A1000A0915002B0915102409163025091640242
:100A2000609165027091660284179507A607B70763
:100A300008F4B3CF1092810010926F0010928004DE
:100A400081E080937F04A9CF1F920F920FB60F927F
:100A50001124CF92DF92EF92FF922F933F934F9307
:100A60005F936F937F938F939F93AF93BF93CF9336
:100A7000EF93FF9380918004882381F080917A0026
:100A800086FF22C01092810010926F0010928004A5
:100A900085E090E090937E0480937D04FF91EF9138
:100AA000CF91BF91AF919F918F917F916F915F9106
:100AB0004F913F912F91FF90EF90DF90CF900F904B
:100AC0000FBE0F901F90189580916802811121C070
:100AD00080914E0290914F02A0915002B09151022C
:100AE00040916B0250916C0260916D0270916E02A8
:100AF000481759076A077B0731F480916A02869587
:100B000081700E944D0280917A00806480937A0007
:100B1000C5CFC0904E02D0904F02E0905002F090AE
:100B200051028091540290915502A0915602B091C9
:100B30005702C816D906EA06FB0629F740914E026D
:100B400050914F026091500270915102C0916A021F
:100B50008091630290916402A0916502B091660257
:100B60000197A109B10984179507A607B70719F4DA
:100B70008C2F8170C6CF60914E0270914F02809190
:100B800050029091510220916B0230916C02409181
:100B90006D0250916E020E947A0BC1FB882780F98A
:100BA00020FF02C08C2F81700E944D0280916B0249
:100BB00090916C02A0916D02B0916E028C0D9D1D02
:100BC000AE1DBF1D8093540290935502A093560210
:100BD000B093570298CFCF93DF93CDB7DEB7EE97A0
:100BE0000FB6F894DEBF0FBECDBF789484B5826097
:100BF00084BD84B5816084BD85B5826085BD85B5C1
:100C0000816085BD80916E00816080936E0010923E
:100C100081008091810082608093810080918100B9
:100C2000816080938100809180008160809380004A
:100C30008091B10084608093B1008091B0008160A8
:100C40008093B00080917A00846080937A008091D4
:100C50007A00826080937A0080917A00816080932C
:100C60007A0080917A00806880937A001092C100A7
:100C700061E088E00E94D30060E088E00E94870085
:100C8000E0919204F091930482E08083E0918E04DD
:100C9000F0918F041082E0919004F091910480E132
:100CA000808310929A04E0919604F091970486E074
:100CB0008083E0919404F091950480818061808329
:100CC000E0919404F0919504808188608083E091A4
:100CD0009404F0919504808180688083E09194046D
:100CE000F091950480818F7D808382E894E00E945A
:100CF0006201181619060CF051C482E894E00E94B3
:100D00004001BC018DA3E0910101E93070F7F0E0F2
:100D1000E457F94F0C949C0B95069C06A906B70660
:100D2000C706DA060A072D0734070DA1053AE9F6CA
:100D300011E010930101D9CF2DA12A3521F432E021
:100D400030930101D2CF4DA1453A79F210920101C1
:100D5000CCCF809302018FEF9FEF0E9463029093AC
:100D600009018093080153E050930101BECF8093A5
:100D7000030180910801909109010E946302909300
:100D800009018093080184E080930101AECF992787
:100D900090930501809304018091080190910901CD
:100DA0000E946302909309018093080165E06093BB
:100DB00001019BCFF82EEE24809104019091050152
:100DC000E82AF92AF0920501E092040180910801D5
:100DD000909109010E946302909309018093080198
:100DE00071E0E71672E0F70638F081E09DA1953AD0
:100DF00009F47BC080E079C0EF2821F4A7E0A0933C
:100E0000010173CF1092070110920601B6E0B09372
:100E100001016BCF80910601909107017C01EFEFFA
:100E2000EE1AFE0AF0920701E09206018C589D4FDF
:100E3000DC016C9380910801909109010E9463028A
:100E4000909309018093080180910401909105011C
:100E5000E816F90609F049CFD1CF772770930B0137
:100E600060930A0188E090CF782F662780910A016D
:100E700090910B01682B792B70930B0160930A0101
:100E800080910801909109016817790749F500914F
:100E90000201809181046DE471E0013089F5E090F8
:100EA0000401F0900501809103018130A9F5809142
:100EB00081046EE571E0EF2819F587E0ECE0F1E0E0
:100EC000DE01119601900D928A95E1F7BFE0BC8397
:100ED00047E050E0BE016F5F7F4F82E00E947102E9
:100EE00081E0FDA1F53A09F085CF809301011092D0
:100EF0000701109206011092050110920401F5CE2F
:100F0000823029F481E090E00E94DC03E9CF81E0A7
:100F100090E00E94B403E4CF10918104833009F083
:100F200042C26CE671E0123009F428C3EFE0EE161D
:100F3000F10429F0F4E1EF16F10409F06CC001E0CE
:100F40000EAB14E1E116F10409F01EAA84E792E069
:100F50000E945D022B013C0188E792E00E945D0245
:100F600068AB79AB8AAB9BAB20917D022FA330910C
:100F70007E023AA344E1E416F10409F051C0509115
:100F80007F025EA380E892E00E945D0268A779A7D5
:100F90008AA79BA784E892E00E945D026CA77DA7C8
:100FA0008EA79FA788A999A9AAA9BBA90197A1095A
:100FB000B10980349244AF40B10568F580917C025C
:100FC000811129C08AA182508C3028F58EA18C7F96
:100FD00011F5FFA1F11136C00EA1202F30E0C9019B
:100FE00095958795802780FF16C028A939A94AA919
:100FF0005BA968A579A58AA59BA5621773078407D5
:10100000950748F48CA59DA5AEA5BFA5892B8A2B75
:101010008B2B09F458C060E871E082E090E079CF52
:101020008FE792E00E945D0268A779A78AA79BA735
:101030006AA16EA37FA17AA31CA61DA61EA61FA649
:101040001FA2B0CF9FA1913031F7AEA1A23019F706
:1010500008A519A52AA53BA5012B022B032BD9F224
:101060002CA53DA54EA55FA52115310541055105CE
:1010700091F268A579A58AA59BA50E94FA0B01E0CB
:101080000E94840CA1E00E94C30CF90108A919A9CF
:101090002AA93BA948015901C12CD12C76019F01F5
:1010A0008A8E9B8EAC8EBD8ECE8EDF8EE8A2F9A28C
:1010B0005401CC8CDD8CE12CF12C00E010E00E947E
:1010C000CF0C09F0A8CF1AEF411651046104710446
:1010D00008F4A3C021E04216510420E46206710422
:1010E00008F099CF8AE0E3E1F1E0DE01119601908A
:1010F0000D928A95E1F785E0EDE1F1E0DE0155968C
:1011000001900D928A95E1F79201A30160E070E0F1
:1011100080E090E004E00E94840C2FAB38AF49AF30
:101120005AAF6BAF7CAF8DAF9EAFAE014F5F5F4FDD
:101130005DAB4CAB1CA21BA2ACA9BDA98D909D9030
:10114000BDABACAB840130E020E040E050E0BA0140
:101150008A8E1B8F2C8F3D8F4E8F5F8F68A379A354
:1011600096948794940140E050E060E070E080E065
:1011700090E0AFA8B8ACC9ACDAACEBACFCAC0DAD50
:101180001EAD0E94BA0CAA8CBB8CC12CD12CE12CB8
:10119000F12C00E010E00E94270C192F19012A0100
:1011A0003B01882EAFEF0E94C30C2F3F3F4F4105FC
:1011B0005105610571058105910509F0A0F5F10161
:1011C0003197FDABECABE5E1F0E0EC0FFD1F2BA19F
:1011D0003CA1E20FF31F30813BA351016201730177
:1011E000082D2A8D3B8D4C8D5D8D6E8D7F8D88A158
:1011F00099A10E94A20BA8E00E94C30C04E00E94E7
:101200009F0C79018A0180917302811117C06AA134
:10121000683019F160E088E01EC04AEF442E512C7E
:10122000612C712C5FCF4BA15CA14F5F5F4F5CA322
:101230004BA34530510509F07FCFEDCE8091690277
:101240005AA1851751F060916A0261700E9487006F
:1012500060E0809169020E94D300E0925F02F09208
:101260006002009361021093620288A999A9AAA959
:10127000BBA98093630290936402A0936502B0932C
:101280006602109267029FA190936802AAA1A093A0
:101290006902BEA1B0936A0208A519A52AA53BA5BB
:1012A00000936B0210936C0220936D0230936E02D8
:1012B0002CA53DA54EA55FA520936F02309370022B
:1012C00040937102509372023EA930935E024CA982
:1012D0005DA950935D0240935C025BA150935B0259
:1012E00061E0609373028A2F0E94D3000E943B0248
:1012F0000E94110280917A008F7780937A0060912A
:101300005E0230915F0220916002909161028091B3
:10131000620239832A839B838C83309163022091FC
:10132000640290916502809166023D832E839F83C3
:1013300088878091670289875091690240916A028B
:1013400030916B0220916C0290916D0280916E023F
:10135000662309F1609168026A875B874C873D8745
:101360002E879F87888B30916F0220917002909119
:10137000710280917202398B2A8B9B8B8C8B44E19A
:1013800050E0BE016F5F7F4F84E00E94710271E008
:1013900070938104A5CD5A874B873C872D879E8704
:1013A0008F874FE0EDCF853009F0C8C084E0E816A4
:1013B000F10409F0A3C0113009F0A0C080917302BC
:1013C000882309F49FC084E792E00E945D022FB752
:1013D000F8941092530210925202109274041092D8
:1013E0004E0210924F02109250021092510210922F
:1013F0007F0410927E0410927D042FBF10924A0247
:1014000010924B0210924C0210924D0210927504F1
:101410001092760410927704109278046093790405
:1014200070937A0480937B0490937C0461E08091B4
:1014300069020E94D30060916A0261708091690222
:101440000E9487008091690290E0FC01E458FF4F00
:10145000E491F0E0EE0FFF1FEE58FF4F259134911D
:1014600030935A0220935902FC01E057FF4FE49158
:10147000E0935802109200010E9411021092800025
:1014800010928100109285001092840080915C027D
:1014900090915D02909389008093880092E096BBC2
:1014A00090936F000FB7F89410938004A2E0A0937C
:1014B00081048091680281112AC080916B02909111
:1014C0006C02A0916D02B0916E02892B8A2B8B2B3E
:1014D00031F480916A02869581700E944D02BFE9C5
:1014E000B0937A0080917A00806480937A00809132
:1014F0005B028860809381000FBFF2CC6FE871E0DF
:101500001230E1F16FE871E083E090E002CD80916C
:101510006A02869581700E944D0280916B029091C3
:101520006C02A0916D02B0916E0280935402909370
:101530005502A0935602B0935702D1CF67EB71E0EA
:10154000863031F56DE971E0E4E0EE16F10401F565
:10155000123009F0C5CC84E792E00E945D02C09091
:101560007904D0907A04E0907B04F0907C046C15B0
:101570007D058E059F0529F06AEA71E083E090E021
:10158000C3CC0E942C020E943B0200937F04A8CC93
:1015900083E090E0123009F0BCCCB6CC809181049D
:1015A000823039F580910001811112C08091800450
:1015B000882351F080917F04811106C080917D04C1
:1015C00090917E04892B21F00E942C020E943B0204
:1015D0009FB7F894809174049FBF882331F0909155
:1015E0008004992399F0803388F4809180048823C3
:1015F00081F080E090E0892B09F477CB0E946E01A6
:10160000882309F472CB0E9400006FCB0E94E9028C
:10161000F0CF3FB7F89480917D0490917E042091A3
:101620007F043FBF009789F064E371E08430910547
:1016300011F064E471E00E94B40310927E041092F1
:101640007D0401E000938104D4CF222391F23091F4
:10165000790420917A0490917B0480917C043983F1
:101660002A839B838C83309175042091760490911A
:101670007704809178043D832E839F83888748E098
:1016800050E0BE016F5F7F4F88E00E94710211E061
:101690001093810410927F04ACCFE2E8F4E013824F
:1016A000128288EE93E0A0E0B0E084839583A68365
:1016B000B78386E291E09183808385EC90E0958703
:1016C000848784EC90E09787868780EC90E0918B0C
:1016D000808B81EC90E0938B828B82EC90E0958BF9
:1016E000848B86EC90E0978B868B118E128E138EF6
:1016F000148E0895A1E21A2EAA1BBB1BFD010DC07A
:10170000AA1FBB1FEE1FFF1FA217B307E407F507B1
:1017100020F0A21BB30BE40BF50B661F771F881F8D
:10172000991F1A9469F760957095809590959B0123
:10173000AC01BD01CF010895EE0FFF1F0590F4919C
:10174000E02D0994DF93CF931F930F939A9DF02D73
:10175000219FF00D8B9DF00D8A9DE02DF10D039FD3
:10176000F00D029FE00DF11D4E9DE00DF11D5E9DFF
:10177000F00D4F9DF00D7F936F93BF92AF925F93EB
:101780004F93D5010E94D80C8B01AC01D7010E9468
:10179000D80CEB01E80FF91FD6010E94F10B2F9135
:1017A0003F91D6010E94D80CC60FD71FE81FF91F22
:1017B000AF91BF910E94F10B2F913F910E94D80CE5
:1017C000C60FD71FE81FF91FD6010E94D80CE60FDD
:1017D000F71F9801BE01CF010F911F91CF91DF91AB
:1017E00008950E94D80C460F571FC81FD91F08F430
:1017F00031960895E894DF93CF93FC01DB010E94BA
:10180000D80C7F936F93E9019A01AC01BF93AF931A
:101810003F932F93DF010E94D80C26F46C1B7D0BA5
:10182000820B930B9E01EB01FC010E94F10BAF9127
:10183000BF912F913F910E94F10BBE01CF01F901A1
:101840002F913F91CF91DF910895689401C0E89462
:101850008F929F92CF93DF930E94330CDF91CF91B1
:101860009F908F90089588249924F401E401B0E4B6
:101870009F93AA279A158B049C04ED05FE05CF05BE
:10188000D007A10798F4AD2FDC2FCF2FFE2FE92D25
:10189000982C892E982F872F762F652F542F432F22
:1018A000322F2227B85031F7BF9127C01B2EBF918E
:1018B000BB27220F331F441F551F661F771F881F2A
:1018C000991F881C991CEE1FFF1FCC1FDD1FAA1F2C
:1018D000BB1F8A149B04EC05FD05CE05DF05A007A0
:1018E000B10748F08A189B08EC09FD09CE09DF0909
:1018F000A00BB10B21601A94E1F62EF49401AF0114
:10190000BE01CD01000C0895002E083090F0982FF4
:10191000872F762F652F542F432F322F22270850E1
:10192000F4CF220F331F441F551F661F771F881FD8
:10193000991F0A95B2F7002D089597FD1094002E77
:10194000083098F00850232F342F452F562F672F3B
:10195000782F892F912DF4CF1594979587957795AA
:10196000679557954795379527950A95AAF71124B6
:10197000002D08952A0D3B1D4C1D5D1D6E1D7F1D04
:10198000801F911F08950024A7FD00942A0F301D89
:10199000401D501D601D701D801D901D08952A154D
:1019A0003B054C055D056E057F0580079107089591
:1019B000A29FB001B39FC001A39F700D811D112490
:1019C000911DB29F700D811D1124911D0895F894F1
:0219D000FFCF47
:1019D2000100000000000000FFFF00000101000004
:1019E20000000001000800400000010004010203A1
:1019F200040500000000A40104013101F1016201AB
:101A02004001540173616D706C65206F766572667A
:101A12006C6F770041444320627573790070726F76
:101A2200746F636F6C2076657273696F6E004845E0
:101A32004C4C4F207061796C6F616400434F4E468D
:101A42004947207768696C6520616374697665002F
:101A5200696E76616C696420434F4E46494700695E
:101A62006E76616C696420535441525400696E76FB
:101A7200616C69642053544F500053544F5020738B
:101A8200657373696F6E00756E65787065637465F2
:0A1A92006420636F6D6D616E6400E7
:00000001FF
