:100000000C9462000C948A000C948A000C948A0070
:100010000C948A000C948A000C948A000C945E075D
:100020000C948A000C948A000C948A000C94850627
:100030000C948A000C948A000C948A000C948A0018
:100040000C945C050C948A000C94CC050C94A605C9
:100050000C948A000C94FE050C948A000C948A007F
:100060000C948A000C948A000000000023002600F3
:10007000290000000000240027002A0000000000E2
:10008000250028002B0004040404040404040202D4
:100090000202020203030303030301020408102007
:1000A0004080010204081020010204081020000012
:1000B0000008000201000003040700000000000027
:1000C0000000680F11241FBECFEFD8E0DEBFCDBF08
:1000D00012E0A0E0B1E0E8E0F2E202C005900D928B
:1000E000A838B107D9F726E0A8E8B2E001C01D9210
:1000F000A434B207E1F710E0C2E6D0E004C02197D3
:10010000FE010E94B70FC136D107C9F70E94B70898
:100110000C9402110C94000090E0FC01E255FF4F9A
:100120002491FC01E656FF4F3491FC01EA57FF4F42
:10013000E491EE23C9F0222339F0233001F1A8F431
:10014000213019F1223029F1F0E0EE0FFF1FE458C1
:10015000FF4FA591B4918FB7F894EC91611126C02F
:1001600030953E233C938FBF08952730A9F0283067
:10017000C9F0243049F7809180008F7D03C08091C1
:1001800080008F7780938000DFCF84B58F7784BD28
:10019000DBCF84B58F7DFBCF8091B0008F778093CC
:1001A000B000D2CF8091B0008F7DF9CF3E2BDACF57
:1001B000CF93DF9390E0FC01E656FF4F24918A57DE
:1001C0009F4FFC0184918823D1F090E0880F991F04
:1001D000FC01EE58FF4FA591B491FC01E458FF4F8C
:1001E000C591D49161110EC09FB7F8948C91E22F04
:1001F000E0958E238C932881E223E8839FBFDF91D3
:10020000CF9108958FB7F894EC91E22BEC938FBFC8
:10021000F6CFAF92BF92CF92DF92EF92FF920F9301
:100220001F93CF93DF936C017B018B01040F151F8C
:10023000EB015E01AE18BF08C017D10759F06991F4
:10024000D601ED91FC910190F081E02DC601099558
:10025000892B79F7C501DF91CF911F910F91FF9005
:10026000EF90DF90CF90BF90AF900895FC01538D39
:10027000448D252F30E0842F90E0821B930B541780
:1002800010F0CF96089501970895FC01918D828D0D
:10029000981761F0A28DAE0FBF2FB11D5D968C91A6
:1002A000928D9F5F9F73928F90E008958FEF9FEFE5
:1002B0000895FC01918D828D981731F0828DE80FA1
:1002C000F11D858D90E008958FEF9FEF0895FC015B
:1002D000918D228D892F90E0805C9F4F821B910928
:1002E0008F73992708958EE995E00E94670121E0B8
:1002F000892B09F420E0822F089580E090E0892B7B
:1003000029F00E94730181110C9400000895FC01F2
:10031000A48DA80FB92FB11DA35ABF4F2C91848D66
:1003200090E001968F739927848FA689B7892C93C3
:10033000A089B1898C91837080648C93938D848D16
:10034000981306C00288F389E02D80818F7D808319
:100350000895EF92FF920F931F93CF93DF93EC01D9
:1003600081E0888F9B8D8C8D98131AC0E889F9895C
:10037000808185FF15C09FB7F894EE89FF8960835F
:10038000E889F98980818370806480839FBF81E0E0
:1003900090E0DF91CF911F910F91FF90EF90089522
:1003A000F62E0B8D10E00F5F1F4F0F731127E02EFD
:1003B0008C8D8E110CC00FB607FCFACFE889F98935
:1003C000808185FFF5CFCE010E948701F1CFEB8DB3
:1003D000EC0FFD2FF11DE35AFF4FF0829FB7F89409
:1003E0000B8FEA89FB8980818062CFCFCF93DF9327
:1003F000EC01888D8823B9F0AA89BB89E889F9893D
:100400008C9185FD03C0808186FD0DC00FB607FC71
:10041000F7CF8C9185FFF2CF808185FFEDCFCE01A4
:100420000E948701E9CFDF91CF91089580E4809306
:100430007C00EEE7F0E080818160808310927B0099
:1004400087E880937A0008950E94160280917A00CE
:10045000806480937A0080917A0086FDFCCF809141
:1004600078009091790008959FB7F89410928100D8
:1004700010926F00EAE7F0E0808187778083109226
:100480009C059FBF089580919D05823039F0909121
:100490009D0581E0933019F080E0089581E0089592
:1004A000E0915F03F091600390915C0320818823C9
:1004B00029F0922B90838093950208959095922332
:1004C000F9CF80919805882359F080919505813066
:1004D00019F080E00E94500281E0809300010895AD
:1004E0009091950580918703913071F4882371F084
:1004F00080917D03883081F360917E0361708091EB
:100500007D030E948C00E8CF8111F6CF60E088E087
:10051000F8CF9FB7F89480919D05823019F09FBF66
:1005200080E008951092810010926F0080917A000F
:10053000877780937A0010929C051092940281E054
:1005400080939D059FBF0E9461021092980581E0F3
:1005500008951092B1001092700080E00E94500245
:100560001092950510926703109268031092690328
:1005700010926A0310926603109265030895CF9358
:10058000CFB7F8940E94A902CFBFCF910895E09110
:100590008E02F0918F0290918D02882321F080814C
:1005A000982B90830895808190959823FACFFC0131
:1005B00040835183628373830895FC01608171815C
:1005C000828193810895962728E0AC01880F991FB6
:1005D00057FF04C031E2832730E193272150A9F768
:1005E00008956F927F928F929F92AF92BF92CF9217
:1005F000DF92EF92FF920F931F93CF93DF93CDB7CC
:10060000DEB728970FB6F894DEBF0FBECDBF7B01D3
:100610008A0191E099838A834B831C82CE010196E3
:100620005C016E0195E0C90ED11C8FEF9FEF350183
:10063000AC14BD0469F447015801AE0CBF1C8A1408
:100640009B0461F0F40161914F010E94E302F7CF36
:10065000F50161915F010E94E302EACF25EA2D8353
:100660002AE52E838F83988742E050E0B6018EE919
:1006700095E00E94090144E050E0B3018EE995E065
:100680000E9409010115110531F0A801B7018EE999
:1006900095E00E94090142E050E0BE01695F7F4F92
:1006A0008EE995E00E94090128960FB6F894DEBF06
:1006B0000FBECDBFDF91CF911F910F91FF90EF90B3
:1006C000DF90CF90BF90AF909F908F907F906F9072
:1006D0000895CF93DF93CDB7DEB728970FB6F89480
:1006E000DEBF0FBECDBF40916B0350916C03609194
:1006F0006D0370916E03CE0101960E94D702409166
:100700009002509191026091920270919302CE01F9
:1007100005960E94D70248E050E0BE016F5F7F4F10
:1007200088E00E94F10228960FB6F894DEBF0FBE53
:10073000CDBFDF91CF9108951F93CF93DF9300D06A
:1007400000D0CDB7DEB78FB7F89410919402111195
:100750000AC08FBF812F0F900F900F900F90DF91E5
:10076000CF911F910895109294028FBF40916B0317
:1007700050916C0360916D0370916E03CE010196F0
:100780000E94D70244E050E0BE016F5F7F4F83E1DB
:100790000E94F102DFCFEF92FF920F931F93CF934E
:1007A000DF93CDB7DEB7C450D1400FB6F894DEBFAB
:1007B0000FBECDBF9FB7F89410919705113308F085
:1007C00058C0112319F1E0918C02F0E0EE0FFF1FE9
:1007D000E552FD4F20813181E7963FAF2EAFE7977D
:1007E000E0918C02F0E0E656FD4F8081CB52DF4F66
:1007F0008883C55DD04080918C028F5F8F7380931A
:100800008C02809197058150809397059FBF25E7C3
:1008100030E02C0F3D1F2E5F3F4FA5EDB0E0AC0F39
:10082000BD1F119691E0911730F54FB7F894E09104
:100830008C02F0E0EE0FFF1FE552FD4F60817181E9
:10084000F901619371939F01E0918C02F0E0E6560B
:10085000FD4F80818D9380918C028F5F8F73809389
:100860008C02809197058150809397054FBF9F5FC1
:10087000DACF10E3A8CF112309F4A8C040916B038D
:1008800050916C0360916D0370916E03CE010196DF
:100890000E94D702409188025091890260918A0299
:1008A00070918B02CE0105960E94D7024091900272
:1008B000509191026091920270919302CE0109963B
:1008C0000E94D7021D871E86FE01EB58FF4FDE01F6
:1008D000119600E09081818132961E969C931E971E
:1008E0001F968C931F970F5F12960113F3CF802FE3
:1008F00090E00796AC01440F551F209198052223E4
:1009000009F472C063E0959587956A95E1F7382FF1
:10091000E1E0F0E0EC0FFD1FE40FF51F20E0119285
:100920002F5F2317E0F3FE01EB52FF4F20E061E061
:1009300070E031913323C1F0A22FA695A695A6951C
:10094000A40FB52FB11DEE24E394F12CEC0EFD1E87
:10095000AE0DBF1D322F37707B0101C0EE0C3A95F2
:10096000EAF73C913E293C932F5F0213E2CF480FF8
:10097000591F84E1BE016F5F7F4F0E94F102809199
:10098000880290918902A0918A02B0918B0201960F
:10099000A11DB11D8093880290938902A0938A02C1
:1009A000B0938B028091900290919102A09192025B
:1009B000B0919302800F911DA11DB11D80939002F3
:1009C00090939102A0939202B0939302CC5FDE4F7A
:1009D0000FB6F894DEBF0FBECDBFDF91CF911F9150
:1009E0000F91FF90EF90089587E0C4CFCF93DF93EE
:1009F0001F92CDB7DEB790919505998341E050E005
:100A0000BE016F5F7F4F0E94F1020F90DF91CF9187
:100A10000895CF93DF93CDB7DEB7AA970FB6F894BA
:100A2000DEBF0FBECDBF89839A83FB01DE01139623
:100A300042E08191882329F04A3219F04F5F8D936B
:100A4000F8CF50E0BE016F5F7F4F89E00E94F10256
:100A5000AA960FB6F894DEBF0FBECDBFDF91CF913F
:100A600008950F931F93CF93DF93EC018B010E94A6
:100A700034020E9461020E949C039FB7F894809107
:100A800097059FBF882319F00E94CB03F6CFB801CA
:100A9000CE010E9409058091870380939D051092E5
:100AA000980510929B0510929A0510929905DF9176
:100AB000CF911F910F9108951F920F920FB60F9231
:100AC00011242F933F938F939F93AF93BF93809164
:100AD000400690914106A0914206B09143063091A4
:100AE0003F0623E0230F2D3758F50196A11DB11DB8
:100AF00020933F068093400690934106A0934206C0
:100B0000B093430680913B0690913C06A0913D0630
:100B1000B0913E060196A11DB11D80933B069093B6
:100B20003C06A0933D06B0933E06BF91AF919F91C6
:100B30008F913F912F910F900FBE0F901F9018959E
:100B400026E8230F0296A11DB11DD2CF1F920F924E
:100B50000FB60F9211242F933F934F935F936F9390
:100B60007F938F939F93AF93BF93EF93FF938EE900
:100B700095E00E948701FF91EF91BF91AF919F9106
:100B80008F917F916F915F914F913F912F910F9036
:100B90000FBE0F901F9018951F920F920FB60F92D5
:100BA00011242F938F939F93EF93FF93E091AE05C2
:100BB000F091AF058081E091B405F091B50582FD1B
:100BC0001BC090818091B7058F5F8F732091B8050E
:100BD000821741F0E091B705F0E0E256FA4F958FA9
:100BE0008093B705FF91EF919F918F912F910F9077
:100BF0000FBE0F901F9018958081F4CF1F920F9217
:100C00000FB60F9211242F934F935F936F937F939F
:100C10008F939F93AF93BF93EF93FF93809178004F
:100C20009091790020919C05222381F020919705D5
:100C30002034E0F01092810010926F0010929C0519
:100C400084E090E090939A0580939905FF91EF914D
:100C5000BF91AF919F918F917F916F915F914F91D4
:100C60002F910F900FBE0F901F901895E0915B038E
:100C7000F0E0EE0FFF1FE552FD4F918380838091DE
:100C8000DA02E0915B03F0E0E656FD4F808380914D
:100C90005B038F5F8F7380935B03809197058F5FFA
:100CA000809397058091960290919702A091980267
:100CB000B09199020196A11DB11D80939602909367
:100CC0009702A0939802B093990280919602909116
:100CD0009702A0919802B0919902409177035091A8
:100CE00078036091790370917A0384179507A607BA
:100CF000B70708F4ABCF1092810010926F001092EA
:100D00009C0581E080939B05A1CF1F920F920FB6A7
:100D10000F921124CF92DF92EF92FF922F933F9385
:100D20004F935F936F937F938F939F93AF93BF93F3
:100D3000CF93EF93FF9380919C05882381F080915E
:100D40007A0086FF22C01092810010926F001092EC
:100D50009C0585E090E090939A0580939905FF911A
:100D6000EF91CF91BF91AF919F918F917F916F91B3
:100D70005F914F913F912F91FF90EF90DF90CF9037
:100D80000F900FBE0F901F901895809198058823A3
:100D900099F0E0915D03F0915E03808190915C0396
:100DA000892391E009F490E09093DA0280917A002F
:100DB000806480937A00D3CF80917C0381111CC022
:100DC0008091960290919702A0919802B091990219
:100DD00040917F0350918003609181037091820361
:100DE000481759076A077B0709F780917E038695A4
:100DF00081700E94C702DACFC0909602D09097020D
:100E0000E0909802F09099028091610390916203C2
:100E1000A0916303B0916403C816D906EA06FB06E5
:100E200029F6409196025091970260919802709134
:100E30009902C0917E038091770390917803A091ED
:100E40007903B0917A030197A109B1098417950735
:100E5000A607B70719F48C2F8170CBCF609196024B
:100E600070919702809198029091990220917F034E
:100E70003091800340918103509182030E94950F2D
:100E8000C1FB882780F920FF02C08C2F81700E944F
:100E9000C70280917F0390918003A0918103B0915C
:100EA00082038C0D9D1DAE1DBF1D80936103909329
:100EB0006203A0936303B093640378CF1F920F92F1
:100EC0000FB60F9211242F933F934F935F936F931D
:100ED0007F938F939F93AF93BF93CF93EF93FF93A2
:100EE00020919505213009F0AAC080916503909169
:100EF0006603892B09F4A3C0809165039091660372
:100F000040916703509168036091690370916A038F
:100F1000B0E0A0E0481759076A077B0708F48FC0C4
:100F20004091650350916603809167039091680337
:100F3000A0916903B0916A03841B950BA109B109C3
:100F40008093670390936803A0936903B0936A0347
:100F50008091670390916803A0916903B0916A033F
:100F6000892B8A2B8B2B09F046C0C0919502C22792
:100F70008C2F0E94500280918D0390918E03A0913E
:100F80008F03B09190038093670390936803A093BD
:100F90006903B0936A03CC2371F180919D0582307F
:100FA00051F590919805992331F110928500109296
:100FB000840086BB80936F00E0915D03F0915E0337
:100FC000808190915C03892391E009F490E09093F3
:100FD000DA0281E080939C0593E090939D058093D5
:100FE000940280917A00806480937A0080916F03EC
:100FF0008860809381008091670390916803A0913D
:101000006903B0916A03813021E09207A105B1051F
:1010100020F080E091E0A0E0B0E09C014091650309
:10102000509166034817590729F081508093B30007
:101030001092B200309366032093650305C00E94AE
:10104000A90281E080939605FF91EF91CF91BF9126
:10105000AF919F918F917F916F915F914F913F9150
:101060002F910F900FBE0F901F901895CF93C42F04
:101070002FB7F89410925B0310928C021092970590
:101080001092960210929702109298021092990272
:1010900010929B0510929A05109299051092DA020F
:1010A000109294022FBF109288021092890210921F
:1010B0008A0210928B02109290021092910210926A
:1010C00092021092930260936B0370936C0380936F
:1010D0006D0390936E03409398058091980581115C
:1010E00024C061E080917D030E94D80060917E035E
:1010F000617080917D030E948C0080917D0390E05F
:10110000FC01EA57FF4FE491F0E0EE0FFF1FE458B7
:10111000FF4F2591349130938F0220938E02FC0172
:10112000E656FF4FE491E0938D0210920001CC232C
:10113000D9F00E9416021092800010928100109245
:1011400085001092840080917003909171039093B8
:1011500089008093880082E086BB10926F008FE93F
:1011600080937A00CF9108950E942402E4CFCF9318
:10117000DF93CDB7DEB7EE970FB6F894DEBF0FBEA4
:10118000CDBF789484B5826084BD84B5816084BD10
:1011900085B5826085BD85B5816085BD80916E0015
:1011A000816080936E001092810080918100826046
:1011B0008093810080918100816080938100809183
:1011C00080008160809380008091B1008460809372
:1011D000B1008091B00081608093B00080917A006E
:1011E000846080937A0080917A00826080937A0094
:1011F00080917A00816080937A0080917A00806883
:1012000080937A001092C10061E088E00E94D800CB
:1012100060E088E00E948C008EE890E0FC01249160
:10122000E22FF0E0EE0FFF1FE458FF4F25913491BD
:101230003093600320935F03FC018491E82FF0E07A
:10124000EE0FFF1FE859FF4F8591949190935E0335
:1012500080935D03E2EAF0E0E491E0935C030E9496
:10126000BF02E091AE05F091AF0582E08083E0918E
:10127000AA05F091AB051082E091AC05F091AD05A7
:1012800080E180831092B605E091B205F091B3053C
:1012900086E08083E091B005F091B10580818061A6
:1012A0008083E091B005F091B105808188608083F2
:1012B000E091B005F091B105808180688083E09174
:1012C000B005F091B10580818F7D80838EE995E036
:1012D0000E946701181619060CF045C58EE995E0C5
:1012E0000E944501BC0189A7E0910101E93070F736
:1012F000F0E0E358F64F0C94B70F86098D099A0970
:10130000A809B809C909F509180A1F0AF9A5F53A83
:10131000E9F601E000930101D9CF19A51A3521F4AE
:1013200022E020930101D2CF39A5353A79F210920B
:101330000101CCCF809302018FEF9FEF0E94E30267
:10134000909309018093080143E040930101BECFCF
:101350008093030180910801909109010E94E302AA
:10136000909309018093080184E080930101AECF3E
:101370009927909305018093040180910801909131
:1013800009010E94E302909309018093080185E01E
:10139000ECCFF82EEE248091040190910501E82A0B
:1013A000F92AF0920501E0920401809108019091E0
:1013B00009010E94E302909309018093080151E022
:1013C000E51652E0F50638F081E069A5653A09F4C2
:1013D0007BC080E079C0EF2811F487E0C6CF10927F
:1013E00007011092060186E0C0CF8091060190911E
:1013F00007017C01AFEFEA1AFA0AF0920701E092C6
:1014000006018F569C4FFC016083809108019091EA
:1014100009010E94E30290930901809308018091E1
:10142000040190910501E816F90609F04FCFD5CFD8
:10143000772770930B0160930A0188E096CF782F8D
:10144000662780910A0190910B01682B792B70938C
:101450000B0160930A0180910801909109016817BE
:10146000790769F580910201813061F00E944302A1
:101470006DE471E0882309F454C181E090E00E949A
:1014800031051DC0E0900401F09005018091030139
:10149000813051F5EF2819F587E0ECE0F1E0DE014D
:1014A000119601900D928A95E1F78FE18C8347E0C8
:1014B00050E0BE016F5F7F4F82E00E94F10281E049
:1014C00019A5153A09F085CF809301011092070103
:1014D000109206011092050110920401F7CE0E94AD
:1014E00043026EE571E0C6CF8A3009F07AC00E94EF
:1014F000430281116CC080919505811168C0F8E0AC
:10150000EF16F10409F068C01091910385E993E0AA
:101510000E94DD02183009F05FC020919203223052
:1015200009F05AC02091930330919403203431057F
:1015300009F052C06B017C010DE7C01AD108E10827
:10154000F10814E5C11612E1D10613E1E106F10438
:1015500008F042C028E02093890322E020938A0308
:1015600040E450E050938C0340938B0360938D03D1
:1015700070938E0380938F039093900351E0509368
:10158000880361E088E00E94D80080E00E94500259
:1015900080918903898380918A038A8390918B0348
:1015A00080918C039B838C8340918D0350918E039B
:1015B00060918F0370919003CE0105960E94D7022F
:1015C00048E050E0BE016F5F7F4F8BE076CF6CE666
:1015D00071E083E090E094C064E871E082E090E024
:1015E0008FC08C3009F073C067E971E0EF2809F013
:1015F00098C00E944302811167C0809195058111B6
:1016000063C080918803882309F45EC02FB7F894E3
:101610008091400690914106A0914206B091430608
:101620002FBF8093910590939205A0939305B0935B
:1016300094051FB7F89462E06093B0001092B10077
:1016400080E00E9450021092B20080918D03909130
:101650008E03A0918F03B0919003809367039093C2
:101660006803A0936903B0936A0380916703909124
:101670006803A0916903B0916A03813071E0970714
:10168000A105B10520F080E091E0A0E0B0E09093EA
:101690006603809365038091650390916603815092
:1016A0008093B30082E087BB8093700081E00E944A
:1016B000500291E09093950584E08093B1001FBFA4
:1016C0008DE00E94F604FBCE69EA71E082CF8E3095
:1016D000D1F46BEB71E0EF2821F580919505813015
:1016E00011F40E94BF020E948902182F8FE00E940D
:1016F000F6046CEC71E087E090E0112309F4DFCE92
:101700000E940905DCCE803131F46EED71E0EF28E6
:1017100041F481E1D6CF823111F5EF2829F061EF54
:1017200071E081E090E0ECCF8091950567E072E098
:10173000813009F04ECF2FB7F894809140069091F8
:101740004106A0914206B09143062FBF80939105B8
:1017500090939205A0939305B0939405B0CE8330F7
:1017600009F052C20E94430260E771E08111E0C2B9
:10177000AFE0EA16F10429F0B4E1EB16F10409F048
:101780006CC0E1E0EEABF4E1EF16F10409F01EAA43
:1017900081E993E00E94DD022B013C0185E993E0A1
:1017A0000E94DD0268AB79AB8AAB9BAB90919A0348
:1017B00080919B0304E1E016F10409F051C09FA75A
:1017C0008AA310919C031AA78DE993E00E94DD0281
:1017D0006BA77CA78DA79EA781EA93E00E94DD02FC
:1017E0006DA37EA38FA398A788A999A9AAA9BBA92D
:1017F0000197A109B10980349244AF40B10568F561
:1018000080919903811129C08AA182508C3028F5DA
:101810004AA5242F30E0842F8C7FF9F45FA5511165
:101820002FC0C90195958795842780FF16C06BA5A9
:101830007CA58DA59EA508A919A92AA93BA9601771
:1018400071078207930748F42DA13EA14FA158A527
:10185000232B242B252B09F457C063E272E0BECE64
:101860009AA38AA78CE993E00E94DD026BA77CA76C
:101870008DA79EA71DA21EA21FA218A61FA6B4CFA9
:101880003FA5313051F74AA5423039F76BA57CA509
:101890008DA59EA5672B682B692BF9F28DA19EA1C2
:1018A000AFA1B8A5892B8A2B8B2BB9F26BA57CA590
:1018B0008DA59EA52DA13EA14FA158A50E94151052
:1018C00001E00E949F10A1E00E94DE10F90108A92A
:1018D00019A92AA93BA948015901C12CD12C76018B
:1018E0009F018A8E9B8EAC8EBD8ECE8EDF8EE8A23F
:1018F000F9A25401CC8CDD8CE12CF12C00E010E03D
:101900000E94EA1009F0A9CF1AEF411651046104B0
:10191000710408F4A5C021E04216510420E46206D7
:10192000710408F09ACF8AE0E3E1F1E0DE0111965C
:1019300001900D928A95E1F785E0EDE1F1E0DE019D
:10194000559601900D928A95E1F79201A30160E00E
:1019500070E080E090E004E00E949F102FAB38AF71
:1019600049AF5AAF6BAF7CAF8DAF9EAFAE014F5F4B
:101970005F4F5DAB4CAB1CA21BA2ACA9BDA98D9067
:101980009D90BDABACAB840130E020E040E050E086
:10199000BA018A8E1B8F2C8F3D8F4E8F5F8F68A36D
:1019A00079A396948794940140E050E060E070E061
:1019B00080E090E0AFA8B8ACC9ACDAACEBACFCAC62
:1019C0000DAD1EAD0E94D510AA8CBB8CC12CD12CA4
:1019D000E12CF12C00E010E00E944210192F1901B7
:1019E0002A013B01882EAFEF0E94DE102F3F3F4FB0
:1019F00041055105610571058105910509F0B0F5B5
:101A0000F1013197FDABECABEBA1FCA1EC0FFD1F9D
:101A100005890BA3510162017301082D2A8D3B8DAD
:101A20004C8D5D8D6E8D7F8D88A199A10E94BD0F1B
:101A3000A8E00E94DE1004E00E94BA10D22EE32E2D
:101A4000F42E152F8091870381111BC04AA14830C5
:101A500069F180919505813049F160E088E024C00A
:101A60009AEF492E512C612C712C5DCF2BA13CA1FA
:101A70002F5F3F4F3CA32BA32530310509F07DCFCD
:101A8000ECCE80917D033AA1831781F0909195056A
:101A9000913011F4883051F060917E0361700E94A2
:101AA0008C0060E080917D030E94D800D092730387
:101AB000E0927403F09275031093760368A979A9F4
:101AC0008AA99BA960937703709378038093790325
:101AD00090937A0310927B037FA570937C038AA175
:101AE00080937D039AA590937E030BA51CA52DA53D
:101AF0003EA500937F0310938003209381033093CE
:101B000082032DA13EA14FA158A5209383033093BA
:101B1000840340938503509386033EA93093720358
:101B20004CA95DA950937103409370035BA150933E
:101B30006F0361E06093870380919505813019F40C
:101B40007AA1783021F061E08AA10E94D8000E9439
:101B500061020E94240280917A008F7780937A003C
:101B60001091720340917303509174036091750357
:101B700070917603CE0101960E94D70240917703BF
:101B8000509178036091790370917A03CE010596A4
:101B90000E94D70280917B03898790917D03809179
:101BA0007E0340917F035091800360918103709187
:101BB0008203112309F120917C032A879B878C875C
:101BC000CE010D960E94D702409183035091840369
:101BD0006091850370918603CE0141960E94D702E1
:101BE00044E150E0BE016F5F7F4F84E00E94F1024C
:101BF00081E080939D0563CC9A878B87CE010C96FC
:101C00000E94D7024FE0EDCF853009F06EC094E01E
:101C1000E916F104E1F410919D051130C1F48091B1
:101C200087038823A1F081E993E00E94DD022091DF
:101C300095052130A1F441E00E9436088FB7F89451
:101C400010929C05A2E0A0939D058FBF38CC0E9406
:101C5000430262E372E0882309F4BBCC69C040E030
:101C60000E943608FFB6F89410939C05B3E0B09339
:101C70009D05E2E0E0936F0080917C0381111EC01E
:101C800080917F0390918003A0918103B0918203A2
:101C9000892B8A2B8B2B31F480917E038695817062
:101CA0000E94C70280917A00806480937A008091BC
:101CB0006F03886080938100FFBE01CC80917E031A
:101CC000869581700E94C70280917F039091800366
:101CD000A0918103B091820380936103909362038A
:101CE000A0936303B0936403DDCF8630B9F5F4E0CD
:101CF000EF16F10429F00E94430260E472E0ABCFDA
:101D00000E944302882309F4DACB81E993E00E9420
:101D1000DD02C0906B03D0906C03E0906D03F090F7
:101D20006E036C157D058E059F0529F06DE472E04C
:101D300083E090E0A4CB80919D05823039F40E942D
:101D40008902882319F00E946903B9CB0E943402EA
:101D50000E94610201E000939B05B1CB0E94430207
:101D60006AE572E078CF80919605882309F458C01F
:101D70008FB7F894109296058FBF0E94890288232E
:101D800009F449C06CEC71E087E090E00E9409051D
:101D900080919D05823091F180919D05833071F590
:101DA0000E949C0381112AC080910001811112C000
:101DB00080919C05882351F080919B05811106C07C
:101DC0008091990590919A05892B21F00E94340207
:101DD0000E9461029FB7F894809197059FBF882366
:101DE00041F090919C05992309F444C0803308F098
:101DF00041C080919C05882309F43FC080E090E0B9
:101E0000892B09F463CA0E947301882309F45ECA0E
:101E10000E9400005BCA6DE672E086E090E0B6CFFB
:101E200080919505813009F0B3CF2FB7F894809158
:101E3000400690914106A0914206B09143062FBF03
:101E40004091910550919205609193057091940590
:101E5000841B950BA60BB70B843C9940A105B105DB
:101E600008F496CF0E94BF020E948902882309F4D9
:101E70008FCF88CF0E94CB03C1CF3FB7F89480911A
:101E8000990590919A0520919B053FBF009799F085
:101E900064E371E08430910511F064E471E00E9424
:101EA000090510929A051092990581E080939D058D
:101EB00010929805A3CF222309F4A0CF0E946903B2
:101EC00081E080939D051092980510929B0596CF16
:101ED000EEE9F5E01382128288EE93E0A0E0B0E034
:101EE00084839583A683B78386E291E09183808380
:101EF00085EC90E09587848784EC90E097878687CF
:101F000080EC90E0918B808B81EC90E0938B828BC6
:101F100082EC90E0958B848B86EC90E0978B868B9F
:101F2000118E128E138E148E0895A1E21A2EAA1B02
:101F3000BB1BFD010DC0AA1FBB1FEE1FFF1FA21779
:101F4000B307E407F50720F0A21BB30BE40BF50B76
:101F5000661F771F881F991F1A9469F760957095FF
:101F6000809590959B01AC01BD01CF010895EE0FC6
:101F7000FF1F0590F491E02D0994DF93CF931F93F9
:101F80000F939A9DF02D219FF00D8B9DF00D8A9D52
:101F9000E02DF10D039FF00D029FE00DF11D4E9D10
:101FA000E00DF11D5E9DF00D4F9DF00D7F936F9341
:101FB000BF92AF925F934F93D5010E94F3108B01B4
:101FC000AC01D7010E94F310EB01E80FF91FD60115
:101FD0000E940C102F913F91D6010E94F310C60F62
:101FE000D71FE81FF91FAF91BF910E940C102F91CE
:101FF0003F910E94F310C60FD71FE81FF91FD601AB
:102000000E94F310E60FF71F9801BE01CF010F9158
:102010001F91CF91DF9108950E94F310460F571F33
:10202000C81FD91F08F431960895E894DF93CF9321
:10203000FC01DB010E94F3107F936F93E9019A0189
:10204000AC01BF93AF933F932F93DF010E94F31036
:1020500026F46C1B7D0B820B930B9E01EB01FC01A4
:102060000E940C10AF91BF912F913F910E940C10D4
:10207000BE01CF01F9012F913F91CF91DF910895DA
:10208000689401C0E8948F929F92CF93DF930E944F
:102090004E10DF91CF919F908F90089588249924BE
:1020A000F401E401B0E49F93AA279A158B049C04E1
:1020B000ED05FE05CF05D007A10798F4AD2FDC2F65
:1020C000CF2FFE2FE92D982C892E982F872F762F32
:1020D000652F542F432F322F2227B85031F7BF914D
:1020E00027C01B2EBF91BB27220F331F441F551F34
:1020F000661F771F881F991F881C991CEE1FFF1FE2
:10210000CC1FDD1FAA1FBB1F8A149B04EC05FD0515
:10211000CE05DF05A007B10748F08A189B08EC0937
:10212000FD09CE09DF09A00BB10B21601A94E1F67D
:102130002EF49401AF01BE01CD01000C0895002ED4
:10214000083090F0982F872F762F652F542F432F2C
:10215000322F22270850F4CF220F331F441F551F60
:10216000661F771F881F991F0A95B2F7002D0895E3
:1021700097FD1094002E083098F00850232F342F2C
:10218000452F562F672F782F892F912DF4CF159437
:10219000979587957795679557954795379527959F
:1021A0000A95AAF71124002D08952A0D3B1D4C1DF8
:1021B0005D1D6E1D7F1D801F911F08950024A7FDCA
:1021C00000942A0F301D401D501D601D701D801D84
:1021D000901D08952A153B054C055D056E057F058C
:1021E000800791070895A29FB001B39FC001A39FEC
:1021F000700D811D1124911DB29F700D811D112440
:08220000911D0895F894FFCF31
:102208000100000000000000FFFF000001020000C4
:102218000000000100080040000001000401020362
:10222800040500000000A90109013601F601670153
:102238004501590173616D706C65206F7665726632
:102248006C6F770041444320627573790070726F38
:10225800746F636F6C2076657273696F6E004845A2
:102268004C4C4F207061796C6F61640047454E5F3C
:10227800434F4E464947207768696C65206163740F
:1022880069766500696E76616C69642047454E5FC2
:10229800434F4E4649470047454E5F5354415254B9
:1022A800207061796C6F616400696E76616C696435
:1022B8002047454E5F53544152540047454E5F53A3
:1022C800544F50207061796C6F6164007472696753
:1022D8006765722063616E63656C6C656400474571
:1022E8004E5F535441545553207061796C6F61644B
:1022F8000047454E5F4B454550414C495645207077
:1023080061796C6F61640047454E5F4B45455041AC
:102318004C495645207768696C652073746F7070F6
:10232800656400696E76616C696420434F4E464966
:102338004700696E76616C696420535441525400B9
:10234800696E76616C69642053544F500053544F42
:10235800502073657373696F6E00756E657870656C
:102368006374656420636F6D6D616E640067656E8C
:10237800657261746F72207363686564756C6572E9
:08238800206661756C74000011
:00000001FF
